:100000000C9463000C948B000C948B000C948B006C
:100010000C948B000C948B000C948B000C948B0034
:100020000C948B000C948B000C948B000C948B0024
:100030000C948B000C948B000C948B000C948B0014
:100040000C9482080C948B000C94F2080C94CC084D
:100050000C948B000C948B000C948B000C948B00F4
:100060000C948B000C948B000000000024002700EF
:100070002A0000000000250028002B0000000000DE
:1000800023002600290004040404040404040202DA
:100090000202020203030303030301020408102007
:1000A0004080010204081020010204081020000012
:1000B0000008000201000003040700000000000027
:1000C000000024091F0B11241FBECFEFD8E0DEBFB4
:1000D000CDBF11E0A0E0B1E0EAE8FEE102C005908A
:1000E0000D92A23CB107D9F723E0A2ECB1E001C028
:1000F0001D92AE33B207E1F710E0C2E6D0E004C0D3
:100100002197FE010E94740BC136D107C9F70E94E6
:100110006B090C94380F0C940000833081F028F4A4
:10012000813099F08230A9F008958730A9F08830A5
:10013000C9F08430B1F4809180008F7D03C080913C
:1001400080008F7780938000089584B58F7784BD79
:10015000089584B58F7DFBCF8091B0008F77809319
:10016000B00008958091B0008F7DF9CFCF93DF93D9
:10017000282F30E0F901E255FF4F8491F901E6564E
:10018000FF4FD491F901EA57FF4FC491CC23A1F05E
:1001900081110E948D00EC2FF0E0EE0FFF1FE4585C
:1001A000FF4FA591B491EC91ED2381E090E009F42B
:1001B00080E0DF91CF91089580E090E0FACF1F9327
:1001C000CF93DF93282F30E0F901E255FF4F849160
:1001D000F901E656FF4FD491F901EA57FF4FC49158
:1001E000CC23A9F0162F81110E948D00EC2FF0E096
:1001F000EE0FFF1FEE58FF4FA591B4918FB7F89403
:10020000EC91111108C0D095DE23DC938FBFDF91F4
:10021000CF911F910895DE2BF8CFCF93DF9390E01D
:10022000FC01E656FF4F24918A579F4FFC018491B1
:100230008823D1F090E0880F991FFC01E859FF4F07
:10024000A591B491FC01EE58FF4FC591D491611175
:100250000EC09FB7F8948C91E22FE0958E238C937B
:100260002881E223E8839FBFDF91CF9108958FB764
:10027000F894EC91E22BEC938FBFF6CF3FB7F89454
:100280008091CD019091CE01A091CF01B091D0018C
:1002900026B5A89B05C02F3F19F00196A11DB11DE1
:1002A0003FBFBA2FA92F982F8827BC01CD01620F1D
:1002B000711D811D911D42E0660F771F881F991FD8
:1002C0004A95D1F708958F929F92AF92BF92CF92A5
:1002D000DF92EF92FF924B015C010E943E016B01A5
:1002E0007C010E943E016C197D098E099F09683EC0
:1002F000734081059105A8F321E0821A9108A108B5
:10030000B10888EEC80E83E0D81EE11CF11C8114F0
:100310009104A104B10429F7FF90EF90DF90CF90F2
:10032000BF90AF909F908F900895AF92BF92CF9261
:10033000DF92EF92FF920F931F93CF93DF936C01A5
:100340007B018B01040F151FEB015E01AE18BF0886
:10035000C017D10759F06991D601ED91FC91019038
:10036000F081E02DC6010995892B79F7C501DF9150
:10037000CF911F910F91FF90EF90DF90CF90BF90A2
:10038000AF900895FC01538D448D252F30E0842FCC
:1003900090E0821B930B541710F0CF9608950197AD
:1003A0000895FC01918D828D981761F0A28DAE0F9A
:1003B000BF2FB11D5D968C91928D9F5F9F73928F21
:1003C00090E008958FEF9FEF0895FC01918D828D4D
:1003D000981731F0828DE80FF11D858D90E008951A
:1003E0008FEF9FEF0895FC01918D228D892F90E072
:1003F000805C9F4F821B91098F739927089581ED2F
:1004000091E00E94F30121E0892B09F420E0822F82
:10041000089580E090E0892B29F00E94FF0181116E
:100420000C9400000895FC01A48DA80FB92FB11DF4
:10043000A35ABF4F2C91848D90E001968F7399271A
:10044000848FA689B7892C93A089B1898C918370F8
:1004500080648C93938D848D981306C00288F389F1
:10046000E02D80818F7D80830895EF92FF920F931E
:100470001F93CF93DF93EC0181E0888F9B8D8C8D50
:1004800098131AC0E889F989808185FF15C09FB744
:10049000F894EE89FF896083E889F9898081837007
:1004A000806480839FBF81E090E0DF91CF911F91B6
:1004B0000F91FF90EF900895F62E0B8D10E00F5FD7
:1004C0001F4F0F731127E02E8C8D8E110CC00FB6AD
:1004D00007FCFACFE889F989808185FFF5CFCE0145
:1004E0000E941302F1CFEB8DEC0FFD2FF11DE35AAB
:1004F000FF4FF0829FB7F8940B8FEA89FB898081C8
:100500008062CFCFCF93DF93EC01888D8823B9F041
:10051000AA89BB89E889F9898C9185FD03C080810E
:1005200086FD0DC00FB607FCF7CF8C9185FFF2CF8B
:10053000808185FFEDCFCE010E941302E9CFDF91CC
:10054000CF910895CF92DF92EF92FF92CF93DF93F6
:10055000EC01688D798D8A8D9B8D9B01AC010E9489
:100560004B0D6B017C0168A179A18AA19BA19B0124
:10057000AC010E947B0B9B01AC01C701B6010E943C
:10058000EC0B0E945E0C6CAB7DAB8EAB9FABE8813D
:10059000F9810084F185E02DCE01DF91CF91FF90AC
:1005A000EF90DF90CF900994CF92DF92EF92FF927D
:1005B000CF93DF93EC018B819C81AD81BE81892B30
:1005C0008A2B8B2BD9F10E943E016B017C0188A5FF
:1005D00099A5AAA5BBA5B701A601481B590B6A0B93
:1005E0007B0B8B819C81AD81BE81481759076A07BF
:1005F0007B0720F188899989AA89BB892A812223CE
:10060000E9F10196A11DB11D888B998BAA8BBB8B3B
:10061000488959896A897B89E881F9810484F5854B
:10062000E02DCE010995C8A6D9A6EAA6FBA6E881C9
:10063000F9810084F185E02DCE01099520E030E0BC
:10064000A901688D798D8A8D9B8D0E94E70B8111A0
:10065000B2CF4C895D896E897F8988899989AA89F9
:10066000BB89481759076A077B0709F0A4CFDF91B8
:10067000CF91FF90EF90DF90CF9008950197A1095F
:10068000B109C2CFCF93DF93FC012781222359F117
:10069000EC0161E080850E940D0161E089850E9486
:1006A0000D018F81843011F08830B1F461E08A85CA
:1006B0000E940D0161E08B850E940D018FA58F3F87
:1006C00091F061E00E940D016EA581E068278FA581
:1006D000DF91CF910C94DF00833011F0863071F7F9
:1006E00061E08A85E9CFDF91CF910895CF93DF93C1
:1006F000FC0127812223A9F0EC010190F081E02D7B
:100700000284F385E02D60E009958FA58F3F49F0C5
:1007100061E00E940D016EA58FA5DF91CF910C9431
:10072000DF00DF91CF910895DC01ED91FC912285EE
:10073000338547705527662777274150510961094E
:100740007109473051056105710560F4FA01E555FD
:10075000FC4F0C94740BB503B703B903BB03BD0383
:10076000BF03C10361E0F901099465E0FCCF64E0D7
:10077000FACF66E0F8CF62E0F6CF6AE0F4CF68E047
:10078000F2CF69E0F0CFCF93DF93EC01CB01BA0158
:1007900026E030E040E050E00E94550B62307105E9
:1007A0008105910589F16CF461157105810591054B
:1007B000D1F06130710581059105F9F0DF91CF919C
:1007C0000895643071058105910561F124F165306A
:1007D00071058105910591F7E881F9810284F3851E
:1007E000E02D66E006C0E881F9810284F385E02D02
:1007F00064E0CE01DF91CF910994E881F981028410
:10080000F385E02D65E0F5CFE881F9810284F38579
:10081000E02D61E0EECFE881F9810284F385E02DDF
:1008200063E0E7CFE881F9810284F385E02D62E09F
:10083000E0CFDC01ED91FC910284F385E02D437063
:10084000552766277727423051056105710571F0FC
:10085000433051056105710559F04130510561057D
:10086000710511F065E0099466E0FDCF6AE0FBCF09
:1008700069E0F9CFCF93DF93EC01CB01BA0123E01C
:1008800030E040E050E00E94550B61307105810579
:10089000910599F06230710581059105A9F0672BEA
:1008A000682B692BC1F4E881F9810284F385E02D7E
:1008B00064E0CE01DF91CF910994E881F98102844F
:1008C000F385E02D61E0F5CFE881F9810284F385BD
:1008D000E02D62E0EECFDF91CF910895DC01ED9144
:1008E000FC910284F385E02D437055276627772716
:1008F000423051056105710571F0433051056105C4
:10090000710559F0413051056105710511F062E042
:10091000099463E0FDCF61E0FBCF60E0F9CFCF93B6
:10092000DF93EC01E881F9810284F385E02D8A816F
:1009300060E0811162E0CE010995E881F9810284CD
:10094000F385E02D8A8161E0811163E0CE01099594
:100950008CA59DA58230910538F0880F991F880FCE
:10096000991F05970197F1F7E881F9810284F385D2
:10097000E02D8A8160E0811162E0CE01DF91CF91AC
:100980000994CF93DF93EC0120E030E0A901688D5A
:10099000798D8A8D9B8D0E94460D18162CF4E8A93E
:1009A000F9A9DF91CF910994EAA9FBA9FACFCF92D7
:1009B000DF92EF92FF920F931F93CF93DF93DC01AF
:1009C0001796CC91C43039F0C83059F1C33019F0C2
:1009D000C63049F1C2E08C01085F1F4FF12CE12CB9
:1009E000C62ED12CD1E0F8016481C6010E2C02C0C4
:1009F000959587950A94E2F780FD6D270F5F1F4F4D
:100A000080810E94DF00BFEFEB1AFB0AEC1658F35F
:100A1000DF91CF911F910F91FF90EF90DF90CF90DA
:100A20000895C4E0D8CFC3E0D6CFDC011796EC918F
:100A30001797E93008F038C0F0E0EF5DFA4F0C94FA
:100A4000740B2A05300536053C054205540548055A
:100A500054054E05ED91FC910684F785E02D09942F
:100A6000ED91FC910088F189E02DF9CFED91FC9199
:100A70000288F389E02DF3CFED91FC910488F5898C
:100A8000E02DEDCFED91FC910688F789E02DE7CFC1
:100A9000ED91FC91008CF18DE02DE1CFED91FC9179
:100AA000028CF38DE02DDBCF08954F925F926F9211
:100AB0007F928F929F92AF92BF92CF92DF92EF92EE
:100AC000FF920F931F93CF93DF93EC01CC88DD88C7
:100AD000EE88FF8888899989AA89BB89C81AD90AAA
:100AE000EA0AFB0A688D798D8A8D9B8D9B01AC018A
:100AF0000E944B0D4B015C0168A179A18AA19BA1C9
:100B00009B01AC010E947B0B9B01AC01C501B401B0
:100B10000E94EC0B0E945E0CC114D104E104F104AC
:100B200009F0B6C062307105810591050CF0D0C0A6
:100B30001B821C821D821E82188E198E1A8E1B8E9D
:100B40001CAA1DAA1EAA1FAAC12CD12C7601C7015E
:100B5000B601DF91CF911F910F91FF90EF90DF9041
:100B6000CF90BF90AF909F908F907F906F905F904D
:100B70004F9008951016110612061306B4F46C1562
:100B80007D058E059F051CF42A812111A1C09B01C2
:100B9000AC0188279927DC01821B930BA40BB50BB2
:100BA0008CAB9DABAEABBFAB93C00115110521055E
:100BB000310509F48DC06C157D058E059F050CF07F
:100BC00087C08A81882309F483C0309520951095C9
:100BD00001951F4F2F4F3F4F0CAB1DAB2EAB3FABC3
:100BE00077C0011511052105310509F471C088246C
:100BF000992454018C189D08AE08BF086815790522
:100C00008A059B050CF064C08A81811161C0DDCF2B
:100C1000CCACDDACEEACFFACA7019601C701B601D0
:100C20000E947B0B2B013C01C501B4010E94960C74
:100C300020E030E040E850E40E944B0D20E030E03E
:100C400040E85FE30E947B0B9B01AC01C301B20152
:100C50000E94EC0B9B01AC01C701B6010E947A0B0C
:100C60003B016C01FE01E05CFF4FE080F1800281FE
:100C700013819701A8010E94460D181614F4730100
:100C80008601C701D8018CAF9DAFAEAFBFAF3AC0F0
:100C90000CA91DA92EA93FA91C141D041E041F0484
:100CA0000CF468CF10161106120613060CF099CF3B
:100CB0000027112798010C191D092E093F096017FB
:100CC0007107820793070CF062CF2A8121115FCF51
:100CD0008CA89DA8AEA8BFA881149104A104B1045A
:100CE00009F096CF88AD99ADAAADBBAD8CAF9DAFE5
:100CF000AEAFBFAF81E01C141D041E041F040CF036
:100D000080E08A833FEF831A930AA30AB30A8CAA6E
:100D10009DAAAEAABFAA8CAC9DACAEACBFACC501BF
:100D2000B4010E94650C6B017C01CB82DC82ED82F8
:100D3000FE82A501940160E074E284E799E40E94D8
:100D4000EC0B688F798F8A8F9B8F2A812111FFCEC0
:100D50009058688F798F8A8F9B8FF9CE0F931F934E
:100D6000DC0154960D911D912D913C9157970417DC
:100D700015072607370771F0FC01448B558B668BEE
:100D8000778B0190F081E02D0084F185E02D1F919B
:100D90000F9109941F910F9108950895FC010190FE
:100DA0000020E9F73197AF01481B590BBC0181EDD9
:100DB00091E00C949501CF93DF930E94CE06EC0155
:100DC0008EE391E00E94CE068C0F9D1FDF91CF91A4
:100DD00008958F929F92AF92BF92CF92DF92EF923F
:100DE000FF920F931F93CF93DF93CDB7DEB7A197F9
:100DF0000FB6F894DEBF0FBECDBF6B017C01F7FECE
:100E000041C06DE281ED91E00E9435028C01222704
:100E10003327A9012C193D094E095F0919A2CE01FA
:100E200081967C019AE0892E912CA12CB12CCA01CB
:100E3000B901A50194010E94330B605DF701629333
:100E40007F01211531054105510589F790E080E0CA
:100E5000309719F0CF010E94CE06800F911FA19606
:100E60000FB6F894DEBF0FBECDBFDF91CF911F91BB
:100E70000F91FF90EF90DF90CF90BF90AF909F9039
:100E80008F900895AC019B0119A28E010F5D1F4F39
:100E90008AE0C82ED12CE12CF12CCA01B901A7019E
:100EA00096010E94330B605DF80162938F0121155A
:100EB00031054105510589F790E080E0309779F2DE
:100EC000CF010E94CE06CBCF4F925F926F927F925E
:100ED0008F929F92AF92BF92CF92DF92EF92FF924A
:100EE000CF93DF93EC016A017B0120E030E0A901A0
:100EF000CB01B6010E94E70B87FF04C0F7FAF0941C
:100F0000F7F8F09488A099A0AAA0BBA0A701960129
:100F1000C501B4010E94E70B882309F44DC06CA9F8
:100F20007DA98EA99FA90E94960C2B013C01A701C7
:100F30009601C501B4010E94EC0B9B01AC01C301F9
:100F4000B2010E944B0D0E945E0C6CAB7DAB8EAB70
:100F50009FABA701960160E070E080E090E40E9402
:100F6000EC0B0E94BE0D26E53EE04DE25FE30E94E1
:100F70004B0D20E034E244E759E40E944B0D68AF8A
:100F800079AF8AAF9BAFC8A2D9A2EAA2FBA2E8813F
:100F9000F9810084F185E02DCE01DF91CF91FF90A2
:100FA000EF90DF90CF90BF90AF909F908F907F9009
:100FB0006F905F904F900994DF91CF91FF90EF90E9
:100FC000DF90CF90BF90AF909F908F907F906F9069
:100FD0005F904F900895CF92DF92EF92FF920F9320
:100FE0001F93CF93DF93EC0180E191E09983888395
:100FF00084E08F83188A198A1A8A1B8A1C8A1D8AA0
:101000001E8A1F8A188E198E1A8E1B8E1C8E1D8E9C
:101010001E8E1F8E18A219A21AA21BA2C12CD12C9F
:1010200080E8E82E8FE3F82ECCA2DDA2EEA2FFA28C
:101030001B821C821D821E8281E090E09DA78CA7EE
:101040008FEF8FA718A619A61AA61BA6688749872F
:101050002A870B871EA61CAA1DAA1EAA1FAA18AEA5
:1010600019AE1AAE1BAE1CAE1DAE1EAE1FAE8E016B
:10107000005C1F4FF801C082D182E282F3821A82A3
:101080001C861D861E861F86CE010E944203B70164
:10109000A601CE010E946407A70196016C8D7D8D8B
:1010A0008E8D9F8D0E94E70B882309F1CC8EDD8EFB
:1010B000EE8EFF8E80E094E2A4E7B9E4F80180832D
:1010C0009183A283B3838CA99DA9AEA9BFA9181649
:1010D00019061A061B065CF4CE01DF91CF911F9111
:1010E0000F91FF90EF90DF90CF900C94A202DF91D0
:1010F000CF911F910F91FF90EF90DF90CF900895C7
:101100000C94AF0E1F920F920FB60F9211242F93D3
:101110003F938F939F93AF93BF938091C901909119
:10112000CA01A091CB01B091CC013091C80123E05C
:10113000230F2D3758F50196A11DB11D2093C8012D
:101140008093C9019093CA01A093CB01B093CC01C5
:101150008091CD019091CE01A091CF01B091D001AD
:101160000196A11DB11D8093CD019093CE01A09356
:10117000CF01B093D001BF91AF919F918F913F91DB
:101180002F910F900FBE0F901F90189526E8230FF8
:101190000296A11DB11DD2CF1F920F920FB60F92D2
:1011A00011242F933F934F935F936F937F938F936C
:1011B0009F93AF93BF93EF93FF9381ED91E00E94D4
:1011C0001302FF91EF91BF91AF919F918F917F910A
:1011D0006F915F914F913F912F910F900FBE0F90A4
:1011E0001F9018951F920F920FB60F9211242F93F4
:1011F0008F939F93EF93FF93E091E101F091E201D0
:101200008081E091E701F091E80182FD1BC09081AF
:101210008091EA018F5F8F732091EB01821741F07B
:10122000E091EA01F0E0EF52FE4F958F8093EA01E2
:10123000FF91EF919F918F912F910F900FBE0F9083
:101240001F9018958081F4CF0F93E1EDF1E01382A8
:10125000128288EE93E0A0E0B0E084839583A683B9
:10126000B78380E391E09183808385EC90E095875C
:10127000848784EC90E09787868780EC90E0918B60
:10128000808B81EC90E0938B828B82EC90E0958B4D
:10129000848B86EC90E0978B868B118E128E138E4A
:1012A000148E05E024E043E062E08EE692E00E94C6
:1012B000EB0709E028E047E066E082EB92E00E945D
:1012C000EB070DE02CE04BE06AE086EF92E00E9435
:1012D000EB070F910895CF93DF9300D000D000D09B
:1012E000CDB7DEB7789484B5826084BD84B5816063
:1012F00084BD85B5826085BD85B5816085BD8091E1
:101300006E00816080936E00109281008091810058
:101310008260809381008091810081608093810050
:10132000809180008160809380008091B100846012
:101330008093B1008091B00081608093B000809173
:101340007A00846080937A0080917A008260809332
:101350007A0080917A00816080937A0080917A008F
:10136000806880937A001092C100E091E101F091D1
:10137000E20182E08083E091DD01F091DE011082E4
:10138000E091DF01F091E0018FEC80831092E901A0
:10139000E091E501F091E60186E08083E091E301D0
:1013A000F091E401808180618083E091E301F0911C
:1013B000E401808188608083E091E301F091E401A1
:1013C000808180688083E091E301F091E401808175
:1013D0008F7D808381E491E00E94DB0606E011E0CE
:1013E00060E0F80180810E940D018DE591E00E948E
:1013F000CE06F801619171918F01072E000C880BC8
:10140000990B0E94E90682E691E00E94DB06F1E07A
:101410000C301F0729F70EE612E0C12CD12C3AEF51
:10142000E32E34E4F32E20E030E04AEF53E4F801F9
:10143000648D758D868D978D0E94E70B8823E1F072
:1014400080E090E0AAEFB3E4F801848F958FA68F37
:10145000B78FE05CFF4FC082D182E282F382F80155
:1014600084A995A9A6A9B7A9181619061A061B06D4
:101470001CF4C8010E94A20240E050E068E473E45A
:10148000C8010E94640780E791E00E94DB060C5BC4
:101490001F4FF3E00A331F0731F60EE612E0F801A2
:1014A00060897189828993890E94E9068EE391E0BF
:1014B0000E94CE06F801108A118A128A138A148AB1
:1014C000158A168A178A14AA15AA16AA17AA1382A9
:1014D000148215821682108E118E128E138E40E0A9
:1014E00058E060E070E0C8010E94AE06C8010E94AA
:1014F000D4028FE791E00E94DB060C5B1F4FF3E004
:101500000A331F0761F682E991E00E94DB0694E44A
:10151000592E20E0622E20E0722E06E011E0CE016E
:1015200001966C0182ECA82E81E0B82E7601F801BC
:1015300040800E5F1F4F842D0E94B6004C01F701C2
:1015400091838083BC01990F880B990B0E94E90657
:101550008EE391E00E94CE06F501819191915F01A9
:101560008816990661F06AE070E080E090E00E94E1
:101570006301842D0E94B600F70191838083F701F7
:10158000819191917F01F501329791838083F1E000
:101590000C301F0761F6812C912C5401F6018191CA
:1015A00091916F01019799F581EB91E00E94CE0630
:1015B000C501B4010E94E90689EB91E00E94DB06B7
:1015C000589C8001599C100D112402591D4F40E078
:1015D00054E060E070E0C8010E94AE06C8010E94BD
:1015E000D40268EE73E080E090E00E94630140E086
:1015F00058E060E070E0C8010E94AE06C8010E9499
:10160000D40268EE73E080E090E00E946301FFEF97
:101610008F1A9F0AAF0ABF0A83E088169104A104BB
:10162000B10409F0BBCF6114710409F476CF0E94B4
:10163000FF01882309F471CF0E9400006ECFCF9381
:10164000DF93CAE3D3E0C454D109E881F98104806F
:10165000F581E02DCE01099582E0CE36D80799F7C5
:10166000DF91CF910895A1E21A2EAA1BBB1BFD01A9
:101670000DC0AA1FBB1FEE1FFF1FA217B307E40771
:10168000F50720F0A21BB30BE40BF50B661F771FC9
:10169000881F991F1A9469F76095709580959095A9
:1016A0009B01AC01BD01CF010895052E97FB1EF4EF
:1016B00000940E946C0B57FD07D00E94330B07FC6F
:1016C00003D04EF40C946C0B5095409530952195B9
:1016D0003F4F4F4F5F4F089590958095709561955E
:1016E0007F4F8F4F9F4F0895EE0FFF1F0590F4918E
:1016F000E02D09945058BB27AA270E94920B0C9406
:101700000C0D0E94FE0C38F00E94050D20F039F4FB
:101710009F3F19F426F40C94FB0C0EF4E095E7FBC4
:101720000C94F50CE92F0E941D0D58F3BA176207AF
:1017300073078407950720F079F4A6F50C943F0D04
:101740000EF4E0950B2EBA2FA02D0B01B9019001DC
:101750000C01CA01A0011124FF27591B99F0593F20
:1017600050F4503E68F11A16F040A22F232F342F68
:101770004427585FF3CF469537952795A795F040B6
:101780005395C9F77EF41F16BA0B620B730B840BCB
:10179000BAF09150A1F0FF0FBB1F661F771F881F83
:1017A000C2F70EC0BA0F621F731F841F48F48795DB
:1017B00077956795B795F7959E3F08F0B0CF9395CD
:1017C000880F08F09927EE0F9795879508950E9446
:1017D000D10C08F481E008950E94000C0C940C0DCB
:1017E0000E94050D58F00E94FE0C40F029F45F3F66
:1017F00029F00C94F50C51110C94400D0C94FB0C39
:101800000E941D0D68F39923B1F3552391F3951BA5
:10181000550BBB27AA2762177307840738F09F5F11
:101820005F4F220F331F441FAA1FA9F335D00E2E7E
:101830003AF0E0E832D091505040E695001CCAF7EB
:101840002BD0FE2F29D0660F771F881FBB1F2617AE
:1018500037074807AB07B0E809F0BB0B802DBF0185
:10186000FF2793585F4F3AF09E3F510578F00C9454
:10187000F50C0C94400D5F3FE4F3983ED4F386954D
:1018800077956795B795F7959F5FC9F7880F911D75
:101890009695879597F90895E1E0660F771F881F61
:1018A000BB1F621773078407BA0720F0621B730B14
:1018B000840BBA0BEE1F88F7E09508950E94650C23
:1018C0006894B1110C94400D08950E94250D88F084
:1018D0009F5798F0B92F9927B751B0F0E1F0660FF4
:1018E000771F881F991F1AF0BA95C9F714C0B13035
:1018F00091F00E943F0DB1E008950C943F0D672FC9
:10190000782F8827B85F39F0B93FCCF38695779563
:101910006795B395D9F73EF490958095709561954C
:101920007F4F8F4F9F4F0895E89409C097FB3EF477
:1019300090958095709561957F4F8F4F9F4F99231C
:10194000A9F0F92F96E9BB279395F695879577959A
:101950006795B795F111F8CFFAF4BB0F11F460FF5A
:101960001BC06F5F7F4F8F4F9F4F16C0882311F0B2
:1019700096E911C0772321F09EE8872F762F05C0C6
:10198000662371F096E8862F70E060E02AF09A9561
:10199000660F771F881FDAF7880F9695879597F956
:1019A0000895990F0008550FAA0BE0E8FEEF1616F0
:1019B0001706E807F907C0F012161306E407F50743
:1019C00098F0621B730B840B950B39F40A2661F0B7
:1019D000232B242B252B21F408950A2609F4A1405A
:1019E000A6958FEF811D811D089597F99F6780E867
:1019F00070E060E008959FEF80EC089500240A9461
:101A00001616170618060906089500240A941216D9
:101A10001306140605060895092E0394000C11F40C
:101A2000882352F0BB0F40F4BF2B11F460FF04C0B9
:101A30006F5F7F4F8F4F9F4F089557FD9058440F12
:101A4000551F59F05F3F71F04795880F97FB991F1D
:101A500061F09F3F79F087950895121613061406DA
:101A6000551FF2CF4695F1DF08C016161706180667
:101A7000991FF1CF86957105610508940895E89442
:101A8000BB2766277727CB0197F908950E94D10CD1
:101A900008F48FEF08950E945E0D0C940C0D0E94C7
:101AA000FE0C38F00E94050D20F0952311F00C94E7
:101AB000F50C0C94FB0C11240C94400D0E941D0D90
:101AC00070F3959FC1F3950F50E0551F629FF00191
:101AD000729FBB27F00DB11D639FAA27F00DB11DAA
:101AE000AA1F649F6627B00DA11D661F829F222733
:101AF000B00DA11D621F739FB00DA11D621F839FBA
:101B0000A00D611D221F749F3327A00D611D231F8F
:101B1000849F600D211D822F762F6A2F11249F57DD
:101B200050409AF0F1F088234AF0EE0FFF1FBB1FE0
:101B3000661F771F881F91505040A9F79E3F51059F
:101B400080F00C94F50C0C94400D5F3FE4F3983E4C
:101B5000D4F3869577956795B795F795E7959F5F49
:101B6000C1F7FE2B880F911D9695879597F90895DB
:101B700019F416F40C94FB0C0C94FE0D0E94250D28
:101B8000B8F39923C9F3B6F39F57550B87FF0E940B
:101B90000C0E0024A0E640EA9001805856959795D7
:101BA00028F4805C660F771F881F20F02617370700
:101BB000480730F4621B730B840B202931294A2B10
:101BC000A69517940794202531254A2758F7660FC4
:101BD000771F881F20F026173707480730F4620B5D
:101BE000730B840B200D311D411DA09581F7B901A8
:101BF000842F9158880F9695879508959F3F31F0CF
:101C0000915020F4879577956795B795880F911D2A
:101C10009695879597F9089591505040660F771FD4
:101C2000881FD2F708950F931F93CF93DF938230CD
:101C3000910510F482E090E0E0913C03F0913D03C7
:101C400030E020E0B0E0A0E0309799F421153105B4
:101C500009F44AC0281B390B24303105D8F58A8194
:101C60009B816115710589F1FB0193838283FE01DC
:101C700011C0408151810281138148175907E0F05A
:101C80004817590799F4109761F012960C93129720
:101C900013961C933296CF01DF91CF911F910F9134
:101CA000089500933C0310933D03F4CF21153105B3
:101CB00051F04217530738F0A901DB019A01BD0129
:101CC000DF01F801C1CFEF01F9CF90933D0380937D
:101CD0003C03CDCFFE01E20FF31F8193919322507D
:101CE000310939832883D7CF20913A0330913B03C0
:101CF000232B41F4209102013091030130933B03E7
:101D000020933A0320910001309101012115310502
:101D100041F42DB73EB74091040150910501241BB9
:101D2000350BE0913A03F0913B03E217F307A0F47F
:101D30002E1B3F0B2817390778F0AC014E5F5F4F21
:101D40002417350748F04E0F5F1F50933B03409315
:101D50003A03819391939FCFF0E0E0E09CCFCF9343
:101D6000DF930097E9F0FC01329713821282A09171
:101D70003C03B0913D03ED0130E020E01097A1F469
:101D800020813181820F931F20913A0330913B03D0
:101D90002817390709F061C0F0933B03E0933A0339
:101DA000DF91CF910895EA01CE17DF07E8F54A8168
:101DB0005B819E0141155105B1F7E901FB83EA837F
:101DC00049915991C40FD51FEC17FD0761F480812B
:101DD00091810296840F951FE901998388838281FE
:101DE00093819B838A83F0E0E0E012968D919C9131
:101DF00013970097B9F52D913C911197CD0102965B
:101E0000820F931F20913A0330913B032817390723
:101E100039F6309751F510923D0310923C03B09380
:101E20003B03A0933A03BCCFD383C283408151814B
:101E3000840F951FC817D90761F44E5F5F4F8881E3
:101E40009981480F591F518340838A819B819383D5
:101E500082832115310509F0B0CFF0933D03E09363
:101E60003C039ECFFD01DC01C0CF13821282D7CF8D
:101E700010E0C2E6D0E004C0FE010E94740B21967F
:0A1E8000C336D107C9F7F894FFCF6D
:101E8A0000003E0380000F000E001000000000005A
:101E9A0076034203CD0680085505D7041505C1040B
:101EAA008F046E043A041904C3039403000000006B
:101EBA0035029501C2018202F301D101E5010D0A41
:101ECA000053657269616C20737461727465642071
:101EDA006F6E203936303020626175640050696E49
:101EEA0020002073657420617320696E7075740018
:101EFA005374657070657220736574207570005331
:101F0A00746570706572206D6F76656420746F20D9
:101F1A003000536574757020636F6D706C657465FD
:101F2A002C20686170707920706C6179696E672104
:101F3A0000427574746F6E20002070726573736549
:021F4A00640031
:00000001FF
